{
  "_format": "hh-sol-artifact-1",
  "contractName": "Network",
  "sourceName": "contracts/gpn-core.sol",
  "abi": [
    {
      "inputs": [
        {
          "internalType": "uint256",
          "name": "value",
          "type": "uint256"
        },
        {
          "internalType": "uint256",
          "name": "length",
          "type": "uint256"
        }
      ],
      "name": "StringsInsufficientHexLength",
      "type": "error"
    },
    {
      "anonymous": false,
      "inputs": [
        {
          "indexed": false,
          "internalType": "address",
          "name": "addr",
          "type": "address"
        },
        {
          "indexed": false,
          "internalType": "bool",
          "name": "isAdded",
          "type": "bool"
        }
      ],
      "name": "ProverUpdate",
      "type": "event"
    },
    {
      "inputs": [],
      "name": "MIN_ETH_AMOUNT_CONSUMER",
      "outputs": [
        {
          "internalType": "uint256",
          "name": "",
          "type": "uint256"
        }
      ],
      "stateMutability": "view",
      "type": "function"
    },
    {
      "inputs": [],
      "name": "MIN_ETH_AMOUNT_PROVER",
      "outputs": [
        {
          "internalType": "uint256",
          "name": "",
          "type": "uint256"
        }
      ],
      "stateMutability": "view",
      "type": "function"
    },
    {
      "inputs": [
        {
          "internalType": "uint256",
          "name": "",
          "type": "uint256"
        }
      ],
      "name": "consumerAddresses",
      "outputs": [
        {
          "internalType": "address",
          "name": "",
          "type": "address"
        }
      ],
      "stateMutability": "view",
      "type": "function"
    },
    {
      "inputs": [
        {
          "internalType": "address",
          "name": "",
          "type": "address"
        }
      ],
      "name": "consumers",
      "outputs": [
        {
          "internalType": "uint256",
          "name": "balance",
          "type": "uint256"
        },
        {
          "internalType": "string",
          "name": "containerName",
          "type": "string"
        }
      ],
      "stateMutability": "view",
      "type": "function"
    },
    {
      "inputs": [],
      "name": "depositEth",
      "outputs": [],
      "stateMutability": "payable",
      "type": "function"
    },
    {
      "inputs": [],
      "name": "getConsumers",
      "outputs": [
        {
          "components": [
            {
              "internalType": "address",
              "name": "addr",
              "type": "address"
            },
            {
              "internalType": "uint256",
              "name": "balance",
              "type": "uint256"
            },
            {
              "internalType": "string",
              "name": "containerName",
              "type": "string"
            }
          ],
          "internalType": "struct Network.ConsumerView[]",
          "name": "",
          "type": "tuple[]"
        }
      ],
      "stateMutability": "view",
      "type": "function"
    },
    {
      "inputs": [],
      "name": "getProvers",
      "outputs": [
        {
          "internalType": "address[]",
          "name": "",
          "type": "address[]"
        }
      ],
      "stateMutability": "view",
      "type": "function"
    },
    {
      "inputs": [
        {
          "internalType": "uint256",
          "name": "",
          "type": "uint256"
        }
      ],
      "name": "payoutRequestIds",
      "outputs": [
        {
          "internalType": "string",
          "name": "",
          "type": "string"
        }
      ],
      "stateMutability": "view",
      "type": "function"
    },
    {
      "inputs": [
        {
          "internalType": "string",
          "name": "",
          "type": "string"
        }
      ],
      "name": "payouts",
      "outputs": [
        {
          "internalType": "address",
          "name": "consumer",
          "type": "address"
        },
        {
          "internalType": "uint256",
          "name": "claimableAfterTimestamp",
          "type": "uint256"
        }
      ],
      "stateMutability": "view",
      "type": "function"
    },
    {
      "inputs": [
        {
          "internalType": "uint256",
          "name": "",
          "type": "uint256"
        }
      ],
      "name": "proverAddresses",
      "outputs": [
        {
          "internalType": "address",
          "name": "",
          "type": "address"
        }
      ],
      "stateMutability": "view",
      "type": "function"
    },
    {
      "inputs": [
        {
          "internalType": "address",
          "name": "",
          "type": "address"
        }
      ],
      "name": "provers",
      "outputs": [
        {
          "internalType": "uint256",
          "name": "balance",
          "type": "uint256"
        }
      ],
      "stateMutability": "view",
      "type": "function"
    },
    {
      "inputs": [
        {
          "internalType": "string",
          "name": "_containerName",
          "type": "string"
        }
      ],
      "name": "registerConsumer",
      "outputs": [],
      "stateMutability": "payable",
      "type": "function"
    },
    {
      "inputs": [],
      "name": "registerProver",
      "outputs": [],
      "stateMutability": "payable",
      "type": "function"
    },
    {
      "inputs": [
        {
          "internalType": "string",
          "name": "requestId",
          "type": "string"
        },
        {
          "internalType": "uint256",
          "name": "reward",
          "type": "uint256"
        },
        {
          "internalType": "bytes32[]",
          "name": "rs",
          "type": "bytes32[]"
        },
        {
          "internalType": "bytes32[]",
          "name": "ss",
          "type": "bytes32[]"
        },
        {
          "internalType": "uint8[]",
          "name": "vs",
          "type": "uint8[]"
        }
      ],
      "name": "submitSignedProof",
      "outputs": [],
      "stateMutability": "nonpayable",
      "type": "function"
    },
    {
      "inputs": [],
      "name": "withdrawConsumer",
      "outputs": [],
      "stateMutability": "nonpayable",
      "type": "function"
    },
    {
      "inputs": [],
      "name": "withdrawProver",
      "outputs": [],
      "stateMutability": "nonpayable",
      "type": "function"
    },
    {
      "inputs": [],
      "name": "withdrawRewards",
      "outputs": [],
      "stateMutability": "nonpayable",
      "type": "function"
    }
  ],
  "bytecode": "0x608060405234801561001057600080fd5b50612b23806100206000396000f3fe6080604052600436106100fe5760003560e01c80634e448c2f11610095578063b99fd95a11610064578063b99fd95a146102d5578063c0bfd03614610300578063c7b8981c1461032b578063d2c7f2ac14610342578063d7be0a061461037f576100fe565b80634e448c2f1461025b5780634fab563714610286578063526688611461029057806355bd3610146102b9576100fe565b806323742142116100d157806323742142146101d25780633b729b86146101e9578063439370b11461021457806347ee6e3c1461021e576100fe565b80630bf536681461010357806313799aa91461014157806315a0a89a146101585780631dec844b14610195575b600080fd5b34801561010f57600080fd5b5061012a60048036038101906101259190611a53565b6103bd565b604051610138929190611b29565b60405180910390f35b34801561014d57600080fd5b50610156610469565b005b34801561016457600080fd5b5061017f600480360381019061017a9190611b85565b6105cd565b60405161018c9190611bb2565b60405180910390f35b3480156101a157600080fd5b506101bc60048036038101906101b79190611a53565b610679565b6040516101c99190611bd4565b60405180910390f35b3480156101de57600080fd5b506101e7610697565b005b3480156101f557600080fd5b506101fe61080d565b60405161020b9190611d69565b60405180910390f35b61021c610aa5565b005b34801561022a57600080fd5b5061024560048036038101906102409190611b85565b610bf0565b6040516102529190611d9a565b60405180910390f35b34801561026757600080fd5b50610270610c2f565b60405161027d9190611bd4565b60405180910390f35b61028e610c3b565b005b34801561029c57600080fd5b506102b760048036038101906102b29190611ec6565b610d99565b005b6102d360048036038101906102ce9190611fc2565b611212565b005b3480156102e157600080fd5b506102ea6113b2565b6040516102f79190611bd4565b60405180910390f35b34801561030c57600080fd5b506103156113be565b60405161032291906120be565b60405180910390f35b34801561033757600080fd5b506103406114c4565b005b34801561034e57600080fd5b5061036960048036038101906103649190611b85565b611606565b6040516103769190611d9a565b60405180910390f35b34801561038b57600080fd5b506103a660048036038101906103a19190612210565b611645565b6040516103b4929190612259565b60405180910390f35b60006020528060005260406000206000915090508060000154908060010180546103e6906122b1565b80601f0160208091040260200160405190810160405280929190818152602001828054610412906122b1565b801561045f5780601f106104345761010080835404028352916020019161045f565b820191906000526020600020905b81548152906001019060200180831161044257829003601f168201915b5050505050905082565b60008060003373ffffffffffffffffffffffffffffffffffffffff1673ffffffffffffffffffffffffffffffffffffffff16815260200190815260200160002060000154036104b757600080fd5b60008060003373ffffffffffffffffffffffffffffffffffffffff1673ffffffffffffffffffffffffffffffffffffffff168152602001908152602001600020600001549050604051806040016040528060008152602001604051806020016040528060008152508152506000803373ffffffffffffffffffffffffffffffffffffffff1673ffffffffffffffffffffffffffffffffffffffff16815260200190815260200160002060008201518160000155602082015181600101908161057f919061248e565b509050503373ffffffffffffffffffffffffffffffffffffffff166108fc829081150290604051600060405180830381858888f193505050501580156105c9573d6000803e3d6000fd5b5050565b600581815481106105dd57600080fd5b9060005260206000200160009150905080546105f8906122b1565b80601f0160208091040260200160405190810160405280929190818152602001828054610624906122b1565b80156106715780601f1061064657610100808354040283529160200191610671565b820191906000526020600020905b81548152906001019060200180831161065457829003601f168201915b505050505081565b60026020528060005260406000206000915090508060000154905081565b6000600260003373ffffffffffffffffffffffffffffffffffffffff1673ffffffffffffffffffffffffffffffffffffffff16815260200190815260200160002060000154036106e657600080fd5b6000600260003373ffffffffffffffffffffffffffffffffffffffff1673ffffffffffffffffffffffffffffffffffffffff16815260200190815260200160002060000154905060405180602001604052806000815250600260003373ffffffffffffffffffffffffffffffffffffffff1673ffffffffffffffffffffffffffffffffffffffff168152602001908152602001600020600082015181600001559050503373ffffffffffffffffffffffffffffffffffffffff166108fc829081150290604051600060405180830381858888f193505050501580156107cf573d6000803e3d6000fd5b507ff385e4ca045e45c251712bb5fa5da5b8cfa28f9d1ccb4071304b3ac7dd5929e133600060405161080292919061257b565b60405180910390a150565b60606000600180549050905060008167ffffffffffffffff811115610835576108346120e5565b5b60405190808252806020026020018201604052801561086e57816020015b61085b6119aa565b8152602001906001900390816108535790505b50905060005b82811015610a9c5760405180606001604052806001838154811061089b5761089a6125a4565b5b9060005260206000200160009054906101000a900473ffffffffffffffffffffffffffffffffffffffff1673ffffffffffffffffffffffffffffffffffffffff168152602001600080600185815481106108f8576108f76125a4565b5b9060005260206000200160009054906101000a900473ffffffffffffffffffffffffffffffffffffffff1673ffffffffffffffffffffffffffffffffffffffff1673ffffffffffffffffffffffffffffffffffffffff1681526020019081526020016000206000015481526020016000806001858154811061097d5761097c6125a4565b5b9060005260206000200160009054906101000a900473ffffffffffffffffffffffffffffffffffffffff1673ffffffffffffffffffffffffffffffffffffffff1673ffffffffffffffffffffffffffffffffffffffff16815260200190815260200160002060010180546109f0906122b1565b80601f0160208091040260200160405190810160405280929190818152602001828054610a1c906122b1565b8015610a695780601f10610a3e57610100808354040283529160200191610a69565b820191906000526020600020905b815481529060010190602001808311610a4c57829003601f168201915b5050505050815250828281518110610a8457610a836125a4565b5b60200260200101819052508080600101915050610874565b50809250505090565b670de0b6b3a76400006000803373ffffffffffffffffffffffffffffffffffffffff1673ffffffffffffffffffffffffffffffffffffffff1681526020019081526020016000206000015434610afb9190612602565b1015610b3c576040517f08c379a0000000000000000000000000000000000000000000000000000000008152600401610b33906126a8565b60405180910390fd5b60008060003373ffffffffffffffffffffffffffffffffffffffff1673ffffffffffffffffffffffffffffffffffffffff1681526020019081526020016000206001018054610b8a906122b1565b905003610b9657600080fd5b346000803373ffffffffffffffffffffffffffffffffffffffff1673ffffffffffffffffffffffffffffffffffffffff1681526020019081526020016000206000016000828254610be79190612602565b92505081905550565b60018181548110610c0057600080fd5b906000526020600020016000915054906101000a900473ffffffffffffffffffffffffffffffffffffffff1681565b6706f05b59d3b2000081565b6706f05b59d3b20000341015610c5057600080fd5b6000600260003373ffffffffffffffffffffffffffffffffffffffff1673ffffffffffffffffffffffffffffffffffffffff1681526020019081526020016000206000015414610c9f57600080fd5b604051806020016040528034815250600260003373ffffffffffffffffffffffffffffffffffffffff1673ffffffffffffffffffffffffffffffffffffffff168152602001908152602001600020600082015181600001559050506003339080600181540180825580915050600190039060005260206000200160009091909190916101000a81548173ffffffffffffffffffffffffffffffffffffffff021916908373ffffffffffffffffffffffffffffffffffffffff1602179055507ff385e4ca045e45c251712bb5fa5da5b8cfa28f9d1ccb4071304b3ac7dd5929e1336001604051610d8f92919061257b565b60405180910390a1565b838390508686905014610dab57600080fd5b838390508282905014610dbd57600080fd5b600060018a8a8a604051602001610dd693929190612719565b6040516020818303038152906040528051906020012084846000818110610e0057610dff6125a4565b5b9050602002016020810190610e15919061277c565b89896000818110610e2957610e286125a4565b5b9050602002013588886000818110610e4457610e436125a4565b5b9050602002013560405160008152602001604052604051610e6894939291906127d1565b6020604051602081039080840390855afa158015610e8a573d6000803e3d6000fd5b50505060206040510351905060008060008373ffffffffffffffffffffffffffffffffffffffff1673ffffffffffffffffffffffffffffffffffffffff1681526020019081526020016000206000015403610ee457600080fd5b600080610f378c8c8080601f016020809104026020016040519081016040528093929190818152602001838380828437600081840152601f19601f8201169050808301925050505050505033600161169f565b90506000818051906020012090506000600190505b8a8a9050811015611068576000600183898985818110610f6f57610f6e6125a4565b5b9050602002016020810190610f84919061277c565b8e8e86818110610f9757610f966125a4565b5b905060200201358d8d87818110610fb157610fb06125a4565b5b9050602002013560405160008152602001604052604051610fd594939291906127d1565b6020604051602081039080840390855afa158015610ff7573d6000803e3d6000fd5b5050506020604051035190506000600260008373ffffffffffffffffffffffffffffffffffffffff1673ffffffffffffffffffffffffffffffffffffffff168152602001908152602001600020600001541461105c57848061105890612824565b9550505b50806001019050610f4c565b5050508160048c8c60405161107e92919061284e565b908152602001604051809103902060000160006101000a81548173ffffffffffffffffffffffffffffffffffffffff021916908373ffffffffffffffffffffffffffffffffffffffff16021790555060048b8b6040516110df92919061284e565b9081526020016040518091039020600201339080600181540180825580915050600190039060005260206000200160009091909190916101000a81548173ffffffffffffffffffffffffffffffffffffffff021916908373ffffffffffffffffffffffffffffffffffffffff16021790555062015180426111609190612602565b60048c8c60405161117292919061284e565b9081526020016040518091039020600301819055508060048c8c60405161119a92919061284e565b908152602001604051809103902060010160003373ffffffffffffffffffffffffffffffffffffffff1673ffffffffffffffffffffffffffffffffffffffff16815260200190815260200160002060000160006101000a81548161ffff021916908361ffff1602179055505050505050505050505050565b670de0b6b3a764000034101561122757600080fd5b6000828290500361123757600080fd5b60008060003373ffffffffffffffffffffffffffffffffffffffff1673ffffffffffffffffffffffffffffffffffffffff1681526020019081526020016000206001018054611285906122b1565b90501461129157600080fd5b604051806040016040528034815260200183838080601f016020809104026020016040519081016040528093929190818152602001838380828437600081840152601f19601f820116905080830192505050505050508152506000803373ffffffffffffffffffffffffffffffffffffffff1673ffffffffffffffffffffffffffffffffffffffff168152602001908152602001600020600082015181600001556020820151816001019081611347919061248e565b509050506001339080600181540180825580915050600190039060005260206000200160009091909190916101000a81548173ffffffffffffffffffffffffffffffffffffffff021916908373ffffffffffffffffffffffffffffffffffffffff1602179055505050565b670de0b6b3a764000081565b60606000600380549050905060008167ffffffffffffffff8111156113e6576113e56120e5565b5b6040519080825280602002602001820160405280156114145781602001602082028036833780820191505090505b50905060005b828110156114bb5760038181548110611436576114356125a4565b5b9060005260206000200160009054906101000a900473ffffffffffffffffffffffffffffffffffffffff16828281518110611474576114736125a4565b5b602002602001019073ffffffffffffffffffffffffffffffffffffffff16908173ffffffffffffffffffffffffffffffffffffffff1681525050808060010191505061141a565b50809250505090565b6000600260003373ffffffffffffffffffffffffffffffffffffffff1673ffffffffffffffffffffffffffffffffffffffff168152602001908152602001600020600001540361151357600080fd5b60006706f05b59d3b20000600260003373ffffffffffffffffffffffffffffffffffffffff1673ffffffffffffffffffffffffffffffffffffffff1681526020019081526020016000206000015461156b9190612867565b90506706f05b59d3b20000600260003373ffffffffffffffffffffffffffffffffffffffff1673ffffffffffffffffffffffffffffffffffffffff168152602001908152602001600020600001819055503373ffffffffffffffffffffffffffffffffffffffff166108fc829081150290604051600060405180830381858888f19350505050158015611602573d6000803e3d6000fd5b5050565b6003818154811061161657600080fd5b906000526020600020016000915054906101000a900473ffffffffffffffffffffffffffffffffffffffff1681565b6004818051602081018201805184825260208301602085012081835280955050505050506000915090508060000160009054906101000a900473ffffffffffffffffffffffffffffffffffffffff16908060030154905082565b6060836116c38473ffffffffffffffffffffffffffffffffffffffff166014611764565b83611703576040518060400160405280600581526020017f66616c736500000000000000000000000000000000000000000000000000000081525061173a565b6040518060400160405280600481526020017f74727565000000000000000000000000000000000000000000000000000000008152505b60405160200161174c939291906129fc565b60405160208183030381529060405290509392505050565b606060008390506000600284600261177c9190612a59565b6117869190612602565b67ffffffffffffffff81111561179f5761179e6120e5565b5b6040519080825280601f01601f1916602001820160405280156117d15781602001600182028036833780820191505090505b5090507f300000000000000000000000000000000000000000000000000000000000000081600081518110611809576118086125a4565b5b60200101907effffffffffffffffffffffffffffffffffffffffffffffffffffffffffffff1916908160001a9053507f78000000000000000000000000000000000000000000000000000000000000008160018151811061186d5761186c6125a4565b5b60200101907effffffffffffffffffffffffffffffffffffffffffffffffffffffffffffff1916908160001a905350600060018560026118ad9190612a59565b6118b79190612602565b90505b6001811115611957577f3031323334353637383961626364656600000000000000000000000000000000600f8416601081106118f9576118f86125a4565b5b1a60f81b8282815181106119105761190f6125a4565b5b60200101907effffffffffffffffffffffffffffffffffffffffffffffffffffffffffffff1916908160001a905350600483901c92508061195090612a9b565b90506118ba565b506000821461199f5784846040517fe22e27eb000000000000000000000000000000000000000000000000000000008152600401611996929190612ac4565b60405180910390fd5b809250505092915050565b6040518060600160405280600073ffffffffffffffffffffffffffffffffffffffff16815260200160008152602001606081525090565b6000604051905090565b600080fd5b600080fd5b600073ffffffffffffffffffffffffffffffffffffffff82169050919050565b6000611a20826119f5565b9050919050565b611a3081611a15565b8114611a3b57600080fd5b50565b600081359050611a4d81611a27565b92915050565b600060208284031215611a6957611a686119eb565b5b6000611a7784828501611a3e565b91505092915050565b6000819050919050565b611a9381611a80565b82525050565b600081519050919050565b600082825260208201905092915050565b60005b83811015611ad3578082015181840152602081019050611ab8565b60008484015250505050565b6000601f19601f8301169050919050565b6000611afb82611a99565b611b058185611aa4565b9350611b15818560208601611ab5565b611b1e81611adf565b840191505092915050565b6000604082019050611b3e6000830185611a8a565b8181036020830152611b508184611af0565b90509392505050565b611b6281611a80565b8114611b6d57600080fd5b50565b600081359050611b7f81611b59565b92915050565b600060208284031215611b9b57611b9a6119eb565b5b6000611ba984828501611b70565b91505092915050565b60006020820190508181036000830152611bcc8184611af0565b905092915050565b6000602082019050611be96000830184611a8a565b92915050565b600081519050919050565b600082825260208201905092915050565b6000819050602082019050919050565b611c2481611a15565b82525050565b611c3381611a80565b82525050565b600082825260208201905092915050565b6000611c5582611a99565b611c5f8185611c39565b9350611c6f818560208601611ab5565b611c7881611adf565b840191505092915050565b6000606083016000830151611c9b6000860182611c1b565b506020830151611cae6020860182611c2a565b5060408301518482036040860152611cc68282611c4a565b9150508091505092915050565b6000611cdf8383611c83565b905092915050565b6000602082019050919050565b6000611cff82611bef565b611d098185611bfa565b935083602082028501611d1b85611c0b565b8060005b85811015611d575784840389528151611d388582611cd3565b9450611d4383611ce7565b925060208a01995050600181019050611d1f565b50829750879550505050505092915050565b60006020820190508181036000830152611d838184611cf4565b905092915050565b611d9481611a15565b82525050565b6000602082019050611daf6000830184611d8b565b92915050565b600080fd5b600080fd5b600080fd5b60008083601f840112611dda57611dd9611db5565b5b8235905067ffffffffffffffff811115611df757611df6611dba565b5b602083019150836001820283011115611e1357611e12611dbf565b5b9250929050565b60008083601f840112611e3057611e2f611db5565b5b8235905067ffffffffffffffff811115611e4d57611e4c611dba565b5b602083019150836020820283011115611e6957611e68611dbf565b5b9250929050565b60008083601f840112611e8657611e85611db5565b5b8235905067ffffffffffffffff811115611ea357611ea2611dba565b5b602083019150836020820283011115611ebf57611ebe611dbf565b5b9250929050565b600080600080600080600080600060a08a8c031215611ee857611ee76119eb565b5b60008a013567ffffffffffffffff811115611f0657611f056119f0565b5b611f128c828d01611dc4565b99509950506020611f258c828d01611b70565b97505060408a013567ffffffffffffffff811115611f4657611f456119f0565b5b611f528c828d01611e1a565b965096505060608a013567ffffffffffffffff811115611f7557611f746119f0565b5b611f818c828d01611e1a565b945094505060808a013567ffffffffffffffff811115611fa457611fa36119f0565b5b611fb08c828d01611e70565b92509250509295985092959850929598565b60008060208385031215611fd957611fd86119eb565b5b600083013567ffffffffffffffff811115611ff757611ff66119f0565b5b61200385828601611dc4565b92509250509250929050565b600081519050919050565b600082825260208201905092915050565b6000819050602082019050919050565b60006120478383611c1b565b60208301905092915050565b6000602082019050919050565b600061206b8261200f565b612075818561201a565b93506120808361202b565b8060005b838110156120b1578151612098888261203b565b97506120a383612053565b925050600181019050612084565b5085935050505092915050565b600060208201905081810360008301526120d88184612060565b905092915050565b600080fd5b7f4e487b7100000000000000000000000000000000000000000000000000000000600052604160045260246000fd5b61211d82611adf565b810181811067ffffffffffffffff8211171561213c5761213b6120e5565b5b80604052505050565b600061214f6119e1565b905061215b8282612114565b919050565b600067ffffffffffffffff82111561217b5761217a6120e5565b5b61218482611adf565b9050602081019050919050565b82818337600083830152505050565b60006121b36121ae84612160565b612145565b9050828152602081018484840111156121cf576121ce6120e0565b5b6121da848285612191565b509392505050565b600082601f8301126121f7576121f6611db5565b5b81356122078482602086016121a0565b91505092915050565b600060208284031215612226576122256119eb565b5b600082013567ffffffffffffffff811115612244576122436119f0565b5b612250848285016121e2565b91505092915050565b600060408201905061226e6000830185611d8b565b61227b6020830184611a8a565b9392505050565b7f4e487b7100000000000000000000000000000000000000000000000000000000600052602260045260246000fd5b600060028204905060018216806122c957607f821691505b6020821081036122dc576122db612282565b5b50919050565b60008190508160005260206000209050919050565b60006020601f8301049050919050565b600082821b905092915050565b6000600883026123447fffffffffffffffffffffffffffffffffffffffffffffffffffffffffffffffff82612307565b61234e8683612307565b95508019841693508086168417925050509392505050565b6000819050919050565b600061238b61238661238184611a80565b612366565b611a80565b9050919050565b6000819050919050565b6123a583612370565b6123b96123b182612392565b848454612314565b825550505050565b600090565b6123ce6123c1565b6123d981848461239c565b505050565b5b818110156123fd576123f26000826123c6565b6001810190506123df565b5050565b601f82111561244257612413816122e2565b61241c846122f7565b8101602085101561242b578190505b61243f612437856122f7565b8301826123de565b50505b505050565b600082821c905092915050565b600061246560001984600802612447565b1980831691505092915050565b600061247e8383612454565b9150826002028217905092915050565b61249782611a99565b67ffffffffffffffff8111156124b0576124af6120e5565b5b6124ba82546122b1565b6124c5828285612401565b600060209050601f8311600181146124f857600084156124e6578287015190505b6124f08582612472565b865550612558565b601f198416612506866122e2565b60005b8281101561252e57848901518255600182019150602085019450602081019050612509565b8683101561254b5784890151612547601f891682612454565b8355505b6001600288020188555050505b505050505050565b60008115159050919050565b61257581612560565b82525050565b60006040820190506125906000830185611d8b565b61259d602083018461256c565b9392505050565b7f4e487b7100000000000000000000000000000000000000000000000000000000600052603260045260246000fd5b7f4e487b7100000000000000000000000000000000000000000000000000000000600052601160045260246000fd5b600061260d82611a80565b915061261883611a80565b92508282019050808211156126305761262f6125d3565b5b92915050565b7f496e73756666696369656e7420616d6f756e74206f662045746865722073656e60008201527f7400000000000000000000000000000000000000000000000000000000000000602082015250565b6000612692602183611aa4565b915061269d82612636565b604082019050919050565b600060208201905081810360008301526126c181612685565b9050919050565b600081905092915050565b60006126df83856126c8565b93506126ec838584612191565b82840190509392505050565b6000819050919050565b61271361270e82611a80565b6126f8565b82525050565b60006127268285876126d3565b91506127328284612702565b602082019150819050949350505050565b600060ff82169050919050565b61275981612743565b811461276457600080fd5b50565b60008135905061277681612750565b92915050565b600060208284031215612792576127916119eb565b5b60006127a084828501612767565b91505092915050565b6000819050919050565b6127bc816127a9565b82525050565b6127cb81612743565b82525050565b60006080820190506127e660008301876127b3565b6127f360208301866127c2565b61280060408301856127b3565b61280d60608301846127b3565b95945050505050565b600061ffff82169050919050565b600061282f82612816565b915061ffff8203612843576128426125d3565b5b600182019050919050565b600061285b8284866126d3565b91508190509392505050565b600061287282611a80565b915061287d83611a80565b9250828203905081811115612895576128946125d3565b5b92915050565b7f7b22726571756573745f6964223a220000000000000000000000000000000000600082015250565b60006128d1600f836126c8565b91506128dc8261289b565b600f82019050919050565b60006128f282611a99565b6128fc81856126c8565b935061290c818560208601611ab5565b80840191505092915050565b7f222c2270726f7665725f61646472657373223a22000000000000000000000000600082015250565b600061294e6014836126c8565b915061295982612918565b601482019050919050565b7f222c2269735f76616c6964223a00000000000000000000000000000000000000600082015250565b600061299a600d836126c8565b91506129a582612964565b600d82019050919050565b7f7d00000000000000000000000000000000000000000000000000000000000000600082015250565b60006129e66001836126c8565b91506129f1826129b0565b600182019050919050565b6000612a07826128c4565b9150612a1382866128e7565b9150612a1e82612941565b9150612a2a82856128e7565b9150612a358261298d565b9150612a4182846128e7565b9150612a4c826129d9565b9150819050949350505050565b6000612a6482611a80565b9150612a6f83611a80565b9250828202612a7d81611a80565b91508282048414831517612a9457612a936125d3565b5b5092915050565b6000612aa682611a80565b915060008203612ab957612ab86125d3565b5b600182039050919050565b6000604082019050612ad96000830185611a8a565b612ae66020830184611a8a565b939250505056fea2646970667358221220f2dec82ee2356949085d972ba0e1339fbaeb63f70bf7c485ab3cb65b82dbe23464736f6c63430008160033",
  "linkReferences": {},
  "deployedLinkReferences": {}
}