{
  "_format": "hh-sol-artifact-1",
  "contractName": "Network",
  "sourceName": "contracts/gpn-core.sol",
  "abi": [
    {
      "inputs": [
        {
          "internalType": "uint256",
          "name": "value",
          "type": "uint256"
        },
        {
          "internalType": "uint256",
          "name": "length",
          "type": "uint256"
        }
      ],
      "name": "StringsInsufficientHexLength",
      "type": "error"
    },
    {
      "anonymous": false,
      "inputs": [
        {
          "indexed": false,
          "internalType": "address",
          "name": "addr",
          "type": "address"
        },
        {
          "indexed": false,
          "internalType": "bool",
          "name": "isAdded",
          "type": "bool"
        }
      ],
      "name": "ConsumerUpdate",
      "type": "event"
    },
    {
      "anonymous": false,
      "inputs": [
        {
          "indexed": false,
          "internalType": "address",
          "name": "addr",
          "type": "address"
        },
        {
          "indexed": false,
          "internalType": "bool",
          "name": "isAdded",
          "type": "bool"
        }
      ],
      "name": "ProverUpdate",
      "type": "event"
    },
    {
      "inputs": [],
      "name": "MIN_ETH_AMOUNT_CONSUMER",
      "outputs": [
        {
          "internalType": "uint256",
          "name": "",
          "type": "uint256"
        }
      ],
      "stateMutability": "view",
      "type": "function"
    },
    {
      "inputs": [],
      "name": "MIN_ETH_AMOUNT_PROVER",
      "outputs": [
        {
          "internalType": "uint256",
          "name": "",
          "type": "uint256"
        }
      ],
      "stateMutability": "view",
      "type": "function"
    },
    {
      "inputs": [
        {
          "internalType": "uint256",
          "name": "",
          "type": "uint256"
        }
      ],
      "name": "consumerAddresses",
      "outputs": [
        {
          "internalType": "address",
          "name": "",
          "type": "address"
        }
      ],
      "stateMutability": "view",
      "type": "function"
    },
    {
      "inputs": [
        {
          "internalType": "address",
          "name": "",
          "type": "address"
        }
      ],
      "name": "consumers",
      "outputs": [
        {
          "internalType": "uint256",
          "name": "balance",
          "type": "uint256"
        },
        {
          "internalType": "string",
          "name": "containerName",
          "type": "string"
        }
      ],
      "stateMutability": "view",
      "type": "function"
    },
    {
      "inputs": [],
      "name": "depositEth",
      "outputs": [],
      "stateMutability": "payable",
      "type": "function"
    },
    {
      "inputs": [],
      "name": "getConsumers",
      "outputs": [
        {
          "components": [
            {
              "internalType": "address",
              "name": "addr",
              "type": "address"
            },
            {
              "internalType": "uint256",
              "name": "balance",
              "type": "uint256"
            },
            {
              "internalType": "string",
              "name": "containerName",
              "type": "string"
            }
          ],
          "internalType": "struct Network.ConsumerView[]",
          "name": "",
          "type": "tuple[]"
        }
      ],
      "stateMutability": "view",
      "type": "function"
    },
    {
      "inputs": [],
      "name": "getProvers",
      "outputs": [
        {
          "internalType": "address[]",
          "name": "",
          "type": "address[]"
        }
      ],
      "stateMutability": "view",
      "type": "function"
    },
    {
      "inputs": [
        {
          "internalType": "uint256",
          "name": "",
          "type": "uint256"
        }
      ],
      "name": "payoutRequestIds",
      "outputs": [
        {
          "internalType": "string",
          "name": "",
          "type": "string"
        }
      ],
      "stateMutability": "view",
      "type": "function"
    },
    {
      "inputs": [
        {
          "internalType": "string",
          "name": "",
          "type": "string"
        }
      ],
      "name": "payouts",
      "outputs": [
        {
          "internalType": "address",
          "name": "consumer",
          "type": "address"
        },
        {
          "internalType": "uint256",
          "name": "claimableAfterTimestamp",
          "type": "uint256"
        }
      ],
      "stateMutability": "view",
      "type": "function"
    },
    {
      "inputs": [
        {
          "internalType": "uint256",
          "name": "",
          "type": "uint256"
        }
      ],
      "name": "proverAddresses",
      "outputs": [
        {
          "internalType": "address",
          "name": "",
          "type": "address"
        }
      ],
      "stateMutability": "view",
      "type": "function"
    },
    {
      "inputs": [
        {
          "internalType": "address",
          "name": "",
          "type": "address"
        }
      ],
      "name": "provers",
      "outputs": [
        {
          "internalType": "uint256",
          "name": "balance",
          "type": "uint256"
        }
      ],
      "stateMutability": "view",
      "type": "function"
    },
    {
      "inputs": [
        {
          "internalType": "string",
          "name": "_containerName",
          "type": "string"
        }
      ],
      "name": "registerConsumer",
      "outputs": [],
      "stateMutability": "payable",
      "type": "function"
    },
    {
      "inputs": [],
      "name": "registerProver",
      "outputs": [],
      "stateMutability": "payable",
      "type": "function"
    },
    {
      "inputs": [
        {
          "internalType": "string",
          "name": "requestId",
          "type": "string"
        },
        {
          "internalType": "uint256",
          "name": "reward",
          "type": "uint256"
        },
        {
          "internalType": "bytes32[]",
          "name": "rs",
          "type": "bytes32[]"
        },
        {
          "internalType": "bytes32[]",
          "name": "ss",
          "type": "bytes32[]"
        },
        {
          "internalType": "uint8[]",
          "name": "vs",
          "type": "uint8[]"
        }
      ],
      "name": "submitSignedProof",
      "outputs": [],
      "stateMutability": "nonpayable",
      "type": "function"
    },
    {
      "inputs": [],
      "name": "withdrawConsumer",
      "outputs": [],
      "stateMutability": "nonpayable",
      "type": "function"
    },
    {
      "inputs": [],
      "name": "withdrawProver",
      "outputs": [],
      "stateMutability": "nonpayable",
      "type": "function"
    },
    {
      "inputs": [],
      "name": "withdrawRewards",
      "outputs": [],
      "stateMutability": "nonpayable",
      "type": "function"
    }
  ],
  "bytecode": "0x608060405234801561001057600080fd5b50612b97806100206000396000f3fe6080604052600436106100fe5760003560e01c80634e448c2f11610095578063b99fd95a11610064578063b99fd95a146102d5578063c0bfd03614610300578063c7b8981c1461032b578063d2c7f2ac14610342578063d7be0a061461037f576100fe565b80634e448c2f1461025b5780634fab563714610286578063526688611461029057806355bd3610146102b9576100fe565b806323742142116100d157806323742142146101d25780633b729b86146101e9578063439370b11461021457806347ee6e3c1461021e576100fe565b80630bf536681461010357806313799aa91461014157806315a0a89a146101585780631dec844b14610195575b600080fd5b34801561010f57600080fd5b5061012a60048036038101906101259190611ac7565b6103bd565b604051610138929190611b9d565b60405180910390f35b34801561014d57600080fd5b50610156610469565b005b34801561016457600080fd5b5061017f600480360381019061017a9190611bf9565b610607565b60405161018c9190611c26565b60405180910390f35b3480156101a157600080fd5b506101bc60048036038101906101b79190611ac7565b6106b3565b6040516101c99190611c48565b60405180910390f35b3480156101de57600080fd5b506101e76106d1565b005b3480156101f557600080fd5b506101fe610847565b60405161020b9190611ddd565b60405180910390f35b61021c610adf565b005b34801561022a57600080fd5b5061024560048036038101906102409190611bf9565b610c2a565b6040516102529190611e0e565b60405180910390f35b34801561026757600080fd5b50610270610c69565b60405161027d9190611c48565b60405180910390f35b61028e610c75565b005b34801561029c57600080fd5b506102b760048036038101906102b29190611f3a565b610dd3565b005b6102d360048036038101906102ce9190612036565b61124c565b005b3480156102e157600080fd5b506102ea611426565b6040516102f79190611c48565b60405180910390f35b34801561030c57600080fd5b50610315611432565b6040516103229190612132565b60405180910390f35b34801561033757600080fd5b50610340611538565b005b34801561034e57600080fd5b5061036960048036038101906103649190611bf9565b61167a565b6040516103769190611e0e565b60405180910390f35b34801561038b57600080fd5b506103a660048036038101906103a19190612284565b6116b9565b6040516103b49291906122cd565b60405180910390f35b60006020528060005260406000206000915090508060000154908060010180546103e690612325565b80601f016020809104026020016040519081016040528092919081815260200182805461041290612325565b801561045f5780601f106104345761010080835404028352916020019161045f565b820191906000526020600020905b81548152906001019060200180831161044257829003601f168201915b5050505050905082565b60008060003373ffffffffffffffffffffffffffffffffffffffff1673ffffffffffffffffffffffffffffffffffffffff16815260200190815260200160002060000154036104b757600080fd5b60008060003373ffffffffffffffffffffffffffffffffffffffff1673ffffffffffffffffffffffffffffffffffffffff168152602001908152602001600020600001549050604051806040016040528060008152602001604051806020016040528060008152508152506000803373ffffffffffffffffffffffffffffffffffffffff1673ffffffffffffffffffffffffffffffffffffffff16815260200190815260200160002060008201518160000155602082015181600101908161057f9190612502565b509050503373ffffffffffffffffffffffffffffffffffffffff166108fc829081150290604051600060405180830381858888f193505050501580156105c9573d6000803e3d6000fd5b507f86e0173a42f5b92ca5dddebbb47ea4263eb9fefb38931d0ae8a27e2236b6f9183360006040516105fc9291906125ef565b60405180910390a150565b6005818154811061061757600080fd5b90600052602060002001600091509050805461063290612325565b80601f016020809104026020016040519081016040528092919081815260200182805461065e90612325565b80156106ab5780601f10610680576101008083540402835291602001916106ab565b820191906000526020600020905b81548152906001019060200180831161068e57829003601f168201915b505050505081565b60026020528060005260406000206000915090508060000154905081565b6000600260003373ffffffffffffffffffffffffffffffffffffffff1673ffffffffffffffffffffffffffffffffffffffff168152602001908152602001600020600001540361072057600080fd5b6000600260003373ffffffffffffffffffffffffffffffffffffffff1673ffffffffffffffffffffffffffffffffffffffff16815260200190815260200160002060000154905060405180602001604052806000815250600260003373ffffffffffffffffffffffffffffffffffffffff1673ffffffffffffffffffffffffffffffffffffffff168152602001908152602001600020600082015181600001559050503373ffffffffffffffffffffffffffffffffffffffff166108fc829081150290604051600060405180830381858888f19350505050158015610809573d6000803e3d6000fd5b507ff385e4ca045e45c251712bb5fa5da5b8cfa28f9d1ccb4071304b3ac7dd5929e133600060405161083c9291906125ef565b60405180910390a150565b60606000600180549050905060008167ffffffffffffffff81111561086f5761086e612159565b5b6040519080825280602002602001820160405280156108a857816020015b610895611a1e565b81526020019060019003908161088d5790505b50905060005b82811015610ad6576040518060600160405280600183815481106108d5576108d4612618565b5b9060005260206000200160009054906101000a900473ffffffffffffffffffffffffffffffffffffffff1673ffffffffffffffffffffffffffffffffffffffff1681526020016000806001858154811061093257610931612618565b5b9060005260206000200160009054906101000a900473ffffffffffffffffffffffffffffffffffffffff1673ffffffffffffffffffffffffffffffffffffffff1673ffffffffffffffffffffffffffffffffffffffff168152602001908152602001600020600001548152602001600080600185815481106109b7576109b6612618565b5b9060005260206000200160009054906101000a900473ffffffffffffffffffffffffffffffffffffffff1673ffffffffffffffffffffffffffffffffffffffff1673ffffffffffffffffffffffffffffffffffffffff1681526020019081526020016000206001018054610a2a90612325565b80601f0160208091040260200160405190810160405280929190818152602001828054610a5690612325565b8015610aa35780601f10610a7857610100808354040283529160200191610aa3565b820191906000526020600020905b815481529060010190602001808311610a8657829003601f168201915b5050505050815250828281518110610abe57610abd612618565b5b602002602001018190525080806001019150506108ae565b50809250505090565b670de0b6b3a76400006000803373ffffffffffffffffffffffffffffffffffffffff1673ffffffffffffffffffffffffffffffffffffffff1681526020019081526020016000206000015434610b359190612676565b1015610b76576040517f08c379a0000000000000000000000000000000000000000000000000000000008152600401610b6d9061271c565b60405180910390fd5b60008060003373ffffffffffffffffffffffffffffffffffffffff1673ffffffffffffffffffffffffffffffffffffffff1681526020019081526020016000206001018054610bc490612325565b905003610bd057600080fd5b346000803373ffffffffffffffffffffffffffffffffffffffff1673ffffffffffffffffffffffffffffffffffffffff1681526020019081526020016000206000016000828254610c219190612676565b92505081905550565b60018181548110610c3a57600080fd5b906000526020600020016000915054906101000a900473ffffffffffffffffffffffffffffffffffffffff1681565b6706f05b59d3b2000081565b6706f05b59d3b20000341015610c8a57600080fd5b6000600260003373ffffffffffffffffffffffffffffffffffffffff1673ffffffffffffffffffffffffffffffffffffffff1681526020019081526020016000206000015414610cd957600080fd5b604051806020016040528034815250600260003373ffffffffffffffffffffffffffffffffffffffff1673ffffffffffffffffffffffffffffffffffffffff168152602001908152602001600020600082015181600001559050506003339080600181540180825580915050600190039060005260206000200160009091909190916101000a81548173ffffffffffffffffffffffffffffffffffffffff021916908373ffffffffffffffffffffffffffffffffffffffff1602179055507ff385e4ca045e45c251712bb5fa5da5b8cfa28f9d1ccb4071304b3ac7dd5929e1336001604051610dc99291906125ef565b60405180910390a1565b838390508686905014610de557600080fd5b838390508282905014610df757600080fd5b600060018a8a8a604051602001610e109392919061278d565b6040516020818303038152906040528051906020012084846000818110610e3a57610e39612618565b5b9050602002016020810190610e4f91906127f0565b89896000818110610e6357610e62612618565b5b9050602002013588886000818110610e7e57610e7d612618565b5b9050602002013560405160008152602001604052604051610ea29493929190612845565b6020604051602081039080840390855afa158015610ec4573d6000803e3d6000fd5b50505060206040510351905060008060008373ffffffffffffffffffffffffffffffffffffffff1673ffffffffffffffffffffffffffffffffffffffff1681526020019081526020016000206000015403610f1e57600080fd5b600080610f718c8c8080601f016020809104026020016040519081016040528093929190818152602001838380828437600081840152601f19601f82011690508083019250505050505050336001611713565b90506000818051906020012090506000600190505b8a8a90508110156110a2576000600183898985818110610fa957610fa8612618565b5b9050602002016020810190610fbe91906127f0565b8e8e86818110610fd157610fd0612618565b5b905060200201358d8d87818110610feb57610fea612618565b5b905060200201356040516000815260200160405260405161100f9493929190612845565b6020604051602081039080840390855afa158015611031573d6000803e3d6000fd5b5050506020604051035190506000600260008373ffffffffffffffffffffffffffffffffffffffff1673ffffffffffffffffffffffffffffffffffffffff168152602001908152602001600020600001541461109657848061109290612898565b9550505b50806001019050610f86565b5050508160048c8c6040516110b89291906128c2565b908152602001604051809103902060000160006101000a81548173ffffffffffffffffffffffffffffffffffffffff021916908373ffffffffffffffffffffffffffffffffffffffff16021790555060048b8b6040516111199291906128c2565b9081526020016040518091039020600201339080600181540180825580915050600190039060005260206000200160009091909190916101000a81548173ffffffffffffffffffffffffffffffffffffffff021916908373ffffffffffffffffffffffffffffffffffffffff160217905550620151804261119a9190612676565b60048c8c6040516111ac9291906128c2565b9081526020016040518091039020600301819055508060048c8c6040516111d49291906128c2565b908152602001604051809103902060010160003373ffffffffffffffffffffffffffffffffffffffff1673ffffffffffffffffffffffffffffffffffffffff16815260200190815260200160002060000160006101000a81548161ffff021916908361ffff1602179055505050505050505050505050565b670de0b6b3a764000034101561126157600080fd5b6000828290500361127157600080fd5b60008060003373ffffffffffffffffffffffffffffffffffffffff1673ffffffffffffffffffffffffffffffffffffffff16815260200190815260200160002060010180546112bf90612325565b9050146112cb57600080fd5b604051806040016040528034815260200183838080601f016020809104026020016040519081016040528093929190818152602001838380828437600081840152601f19601f820116905080830192505050505050508152506000803373ffffffffffffffffffffffffffffffffffffffff1673ffffffffffffffffffffffffffffffffffffffff1681526020019081526020016000206000820151816000015560208201518160010190816113819190612502565b509050506001339080600181540180825580915050600190039060005260206000200160009091909190916101000a81548173ffffffffffffffffffffffffffffffffffffffff021916908373ffffffffffffffffffffffffffffffffffffffff1602179055507f86e0173a42f5b92ca5dddebbb47ea4263eb9fefb38931d0ae8a27e2236b6f91833600160405161141a9291906125ef565b60405180910390a15050565b670de0b6b3a764000081565b60606000600380549050905060008167ffffffffffffffff81111561145a57611459612159565b5b6040519080825280602002602001820160405280156114885781602001602082028036833780820191505090505b50905060005b8281101561152f57600381815481106114aa576114a9612618565b5b9060005260206000200160009054906101000a900473ffffffffffffffffffffffffffffffffffffffff168282815181106114e8576114e7612618565b5b602002602001019073ffffffffffffffffffffffffffffffffffffffff16908173ffffffffffffffffffffffffffffffffffffffff1681525050808060010191505061148e565b50809250505090565b6000600260003373ffffffffffffffffffffffffffffffffffffffff1673ffffffffffffffffffffffffffffffffffffffff168152602001908152602001600020600001540361158757600080fd5b60006706f05b59d3b20000600260003373ffffffffffffffffffffffffffffffffffffffff1673ffffffffffffffffffffffffffffffffffffffff168152602001908152602001600020600001546115df91906128db565b90506706f05b59d3b20000600260003373ffffffffffffffffffffffffffffffffffffffff1673ffffffffffffffffffffffffffffffffffffffff168152602001908152602001600020600001819055503373ffffffffffffffffffffffffffffffffffffffff166108fc829081150290604051600060405180830381858888f19350505050158015611676573d6000803e3d6000fd5b5050565b6003818154811061168a57600080fd5b906000526020600020016000915054906101000a900473ffffffffffffffffffffffffffffffffffffffff1681565b6004818051602081018201805184825260208301602085012081835280955050505050506000915090508060000160009054906101000a900473ffffffffffffffffffffffffffffffffffffffff16908060030154905082565b6060836117378473ffffffffffffffffffffffffffffffffffffffff1660146117d8565b83611777576040518060400160405280600581526020017f66616c73650000000000000000000000000000000000000000000000000000008152506117ae565b6040518060400160405280600481526020017f74727565000000000000000000000000000000000000000000000000000000008152505b6040516020016117c093929190612a70565b60405160208183030381529060405290509392505050565b60606000839050600060028460026117f09190612acd565b6117fa9190612676565b67ffffffffffffffff81111561181357611812612159565b5b6040519080825280601f01601f1916602001820160405280156118455781602001600182028036833780820191505090505b5090507f30000000000000000000000000000000000000000000000000000000000000008160008151811061187d5761187c612618565b5b60200101907effffffffffffffffffffffffffffffffffffffffffffffffffffffffffffff1916908160001a9053507f7800000000000000000000000000000000000000000000000000000000000000816001815181106118e1576118e0612618565b5b60200101907effffffffffffffffffffffffffffffffffffffffffffffffffffffffffffff1916908160001a905350600060018560026119219190612acd565b61192b9190612676565b90505b60018111156119cb577f3031323334353637383961626364656600000000000000000000000000000000600f84166010811061196d5761196c612618565b5b1a60f81b82828151811061198457611983612618565b5b60200101907effffffffffffffffffffffffffffffffffffffffffffffffffffffffffffff1916908160001a905350600483901c9250806119c490612b0f565b905061192e565b5060008214611a135784846040517fe22e27eb000000000000000000000000000000000000000000000000000000008152600401611a0a929190612b38565b60405180910390fd5b809250505092915050565b6040518060600160405280600073ffffffffffffffffffffffffffffffffffffffff16815260200160008152602001606081525090565b6000604051905090565b600080fd5b600080fd5b600073ffffffffffffffffffffffffffffffffffffffff82169050919050565b6000611a9482611a69565b9050919050565b611aa481611a89565b8114611aaf57600080fd5b50565b600081359050611ac181611a9b565b92915050565b600060208284031215611add57611adc611a5f565b5b6000611aeb84828501611ab2565b91505092915050565b6000819050919050565b611b0781611af4565b82525050565b600081519050919050565b600082825260208201905092915050565b60005b83811015611b47578082015181840152602081019050611b2c565b60008484015250505050565b6000601f19601f8301169050919050565b6000611b6f82611b0d565b611b798185611b18565b9350611b89818560208601611b29565b611b9281611b53565b840191505092915050565b6000604082019050611bb26000830185611afe565b8181036020830152611bc48184611b64565b90509392505050565b611bd681611af4565b8114611be157600080fd5b50565b600081359050611bf381611bcd565b92915050565b600060208284031215611c0f57611c0e611a5f565b5b6000611c1d84828501611be4565b91505092915050565b60006020820190508181036000830152611c408184611b64565b905092915050565b6000602082019050611c5d6000830184611afe565b92915050565b600081519050919050565b600082825260208201905092915050565b6000819050602082019050919050565b611c9881611a89565b82525050565b611ca781611af4565b82525050565b600082825260208201905092915050565b6000611cc982611b0d565b611cd38185611cad565b9350611ce3818560208601611b29565b611cec81611b53565b840191505092915050565b6000606083016000830151611d0f6000860182611c8f565b506020830151611d226020860182611c9e565b5060408301518482036040860152611d3a8282611cbe565b9150508091505092915050565b6000611d538383611cf7565b905092915050565b6000602082019050919050565b6000611d7382611c63565b611d7d8185611c6e565b935083602082028501611d8f85611c7f565b8060005b85811015611dcb5784840389528151611dac8582611d47565b9450611db783611d5b565b925060208a01995050600181019050611d93565b50829750879550505050505092915050565b60006020820190508181036000830152611df78184611d68565b905092915050565b611e0881611a89565b82525050565b6000602082019050611e236000830184611dff565b92915050565b600080fd5b600080fd5b600080fd5b60008083601f840112611e4e57611e4d611e29565b5b8235905067ffffffffffffffff811115611e6b57611e6a611e2e565b5b602083019150836001820283011115611e8757611e86611e33565b5b9250929050565b60008083601f840112611ea457611ea3611e29565b5b8235905067ffffffffffffffff811115611ec157611ec0611e2e565b5b602083019150836020820283011115611edd57611edc611e33565b5b9250929050565b60008083601f840112611efa57611ef9611e29565b5b8235905067ffffffffffffffff811115611f1757611f16611e2e565b5b602083019150836020820283011115611f3357611f32611e33565b5b9250929050565b600080600080600080600080600060a08a8c031215611f5c57611f5b611a5f565b5b60008a013567ffffffffffffffff811115611f7a57611f79611a64565b5b611f868c828d01611e38565b99509950506020611f998c828d01611be4565b97505060408a013567ffffffffffffffff811115611fba57611fb9611a64565b5b611fc68c828d01611e8e565b965096505060608a013567ffffffffffffffff811115611fe957611fe8611a64565b5b611ff58c828d01611e8e565b945094505060808a013567ffffffffffffffff81111561201857612017611a64565b5b6120248c828d01611ee4565b92509250509295985092959850929598565b6000806020838503121561204d5761204c611a5f565b5b600083013567ffffffffffffffff81111561206b5761206a611a64565b5b61207785828601611e38565b92509250509250929050565b600081519050919050565b600082825260208201905092915050565b6000819050602082019050919050565b60006120bb8383611c8f565b60208301905092915050565b6000602082019050919050565b60006120df82612083565b6120e9818561208e565b93506120f48361209f565b8060005b8381101561212557815161210c88826120af565b9750612117836120c7565b9250506001810190506120f8565b5085935050505092915050565b6000602082019050818103600083015261214c81846120d4565b905092915050565b600080fd5b7f4e487b7100000000000000000000000000000000000000000000000000000000600052604160045260246000fd5b61219182611b53565b810181811067ffffffffffffffff821117156121b0576121af612159565b5b80604052505050565b60006121c3611a55565b90506121cf8282612188565b919050565b600067ffffffffffffffff8211156121ef576121ee612159565b5b6121f882611b53565b9050602081019050919050565b82818337600083830152505050565b6000612227612222846121d4565b6121b9565b90508281526020810184848401111561224357612242612154565b5b61224e848285612205565b509392505050565b600082601f83011261226b5761226a611e29565b5b813561227b848260208601612214565b91505092915050565b60006020828403121561229a57612299611a5f565b5b600082013567ffffffffffffffff8111156122b8576122b7611a64565b5b6122c484828501612256565b91505092915050565b60006040820190506122e26000830185611dff565b6122ef6020830184611afe565b9392505050565b7f4e487b7100000000000000000000000000000000000000000000000000000000600052602260045260246000fd5b6000600282049050600182168061233d57607f821691505b6020821081036123505761234f6122f6565b5b50919050565b60008190508160005260206000209050919050565b60006020601f8301049050919050565b600082821b905092915050565b6000600883026123b87fffffffffffffffffffffffffffffffffffffffffffffffffffffffffffffffff8261237b565b6123c2868361237b565b95508019841693508086168417925050509392505050565b6000819050919050565b60006123ff6123fa6123f584611af4565b6123da565b611af4565b9050919050565b6000819050919050565b612419836123e4565b61242d61242582612406565b848454612388565b825550505050565b600090565b612442612435565b61244d818484612410565b505050565b5b818110156124715761246660008261243a565b600181019050612453565b5050565b601f8211156124b65761248781612356565b6124908461236b565b8101602085101561249f578190505b6124b36124ab8561236b565b830182612452565b50505b505050565b600082821c905092915050565b60006124d9600019846008026124bb565b1980831691505092915050565b60006124f283836124c8565b9150826002028217905092915050565b61250b82611b0d565b67ffffffffffffffff81111561252457612523612159565b5b61252e8254612325565b612539828285612475565b600060209050601f83116001811461256c576000841561255a578287015190505b61256485826124e6565b8655506125cc565b601f19841661257a86612356565b60005b828110156125a25784890151825560018201915060208501945060208101905061257d565b868310156125bf57848901516125bb601f8916826124c8565b8355505b6001600288020188555050505b505050505050565b60008115159050919050565b6125e9816125d4565b82525050565b60006040820190506126046000830185611dff565b61261160208301846125e0565b9392505050565b7f4e487b7100000000000000000000000000000000000000000000000000000000600052603260045260246000fd5b7f4e487b7100000000000000000000000000000000000000000000000000000000600052601160045260246000fd5b600061268182611af4565b915061268c83611af4565b92508282019050808211156126a4576126a3612647565b5b92915050565b7f496e73756666696369656e7420616d6f756e74206f662045746865722073656e60008201527f7400000000000000000000000000000000000000000000000000000000000000602082015250565b6000612706602183611b18565b9150612711826126aa565b604082019050919050565b60006020820190508181036000830152612735816126f9565b9050919050565b600081905092915050565b6000612753838561273c565b9350612760838584612205565b82840190509392505050565b6000819050919050565b61278761278282611af4565b61276c565b82525050565b600061279a828587612747565b91506127a68284612776565b602082019150819050949350505050565b600060ff82169050919050565b6127cd816127b7565b81146127d857600080fd5b50565b6000813590506127ea816127c4565b92915050565b60006020828403121561280657612805611a5f565b5b6000612814848285016127db565b91505092915050565b6000819050919050565b6128308161281d565b82525050565b61283f816127b7565b82525050565b600060808201905061285a6000830187612827565b6128676020830186612836565b6128746040830185612827565b6128816060830184612827565b95945050505050565b600061ffff82169050919050565b60006128a38261288a565b915061ffff82036128b7576128b6612647565b5b600182019050919050565b60006128cf828486612747565b91508190509392505050565b60006128e682611af4565b91506128f183611af4565b925082820390508181111561290957612908612647565b5b92915050565b7f7b22726571756573745f6964223a220000000000000000000000000000000000600082015250565b6000612945600f8361273c565b91506129508261290f565b600f82019050919050565b600061296682611b0d565b612970818561273c565b9350612980818560208601611b29565b80840191505092915050565b7f222c2270726f7665725f61646472657373223a22000000000000000000000000600082015250565b60006129c260148361273c565b91506129cd8261298c565b601482019050919050565b7f222c2269735f76616c6964223a00000000000000000000000000000000000000600082015250565b6000612a0e600d8361273c565b9150612a19826129d8565b600d82019050919050565b7f7d00000000000000000000000000000000000000000000000000000000000000600082015250565b6000612a5a60018361273c565b9150612a6582612a24565b600182019050919050565b6000612a7b82612938565b9150612a87828661295b565b9150612a92826129b5565b9150612a9e828561295b565b9150612aa982612a01565b9150612ab5828461295b565b9150612ac082612a4d565b9150819050949350505050565b6000612ad882611af4565b9150612ae383611af4565b9250828202612af181611af4565b91508282048414831517612b0857612b07612647565b5b5092915050565b6000612b1a82611af4565b915060008203612b2d57612b2c612647565b5b600182039050919050565b6000604082019050612b4d6000830185611afe565b612b5a6020830184611afe565b939250505056fea2646970667358221220e5872db799d174b2f88a06f4bfd06213db6fa78af99962a5ba24252b7ae69df864736f6c63430008160033",
  "linkReferences": {},
  "deployedLinkReferences": {}
}